{
  "contractName": "DigitalDelirium",
  "abi": [
    {
      "inputs": [
        {
          "internalType": "address",
          "name": "erc20TokenAddress",
          "type": "address"
        }
      ],
      "stateMutability": "nonpayable",
      "type": "constructor"
    },
    {
      "anonymous": false,
      "inputs": [
        {
          "indexed": true,
          "internalType": "address",
          "name": "owner",
          "type": "address"
        },
        {
          "indexed": true,
          "internalType": "address",
          "name": "approved",
          "type": "address"
        },
        {
          "indexed": true,
          "internalType": "uint256",
          "name": "tokenId",
          "type": "uint256"
        }
      ],
      "name": "Approval",
      "type": "event"
    },
    {
      "anonymous": false,
      "inputs": [
        {
          "indexed": true,
          "internalType": "address",
          "name": "owner",
          "type": "address"
        },
        {
          "indexed": true,
          "internalType": "address",
          "name": "operator",
          "type": "address"
        },
        {
          "indexed": false,
          "internalType": "bool",
          "name": "approved",
          "type": "bool"
        }
      ],
      "name": "ApprovalForAll",
      "type": "event"
    },
    {
      "anonymous": false,
      "inputs": [
        {
          "indexed": false,
          "internalType": "uint256",
          "name": "_fromTokenId",
          "type": "uint256"
        },
        {
          "indexed": false,
          "internalType": "uint256",
          "name": "_toTokenId",
          "type": "uint256"
        }
      ],
      "name": "BatchMetadataUpdate",
      "type": "event"
    },
    {
      "anonymous": false,
      "inputs": [
        {
          "indexed": false,
          "internalType": "uint256",
          "name": "_tokenId",
          "type": "uint256"
        }
      ],
      "name": "MetadataUpdate",
      "type": "event"
    },
    {
      "anonymous": false,
      "inputs": [
        {
          "indexed": true,
          "internalType": "uint256",
          "name": "tokenId",
          "type": "uint256"
        },
        {
          "indexed": true,
          "internalType": "address",
          "name": "bidder",
          "type": "address"
        },
        {
          "indexed": false,
          "internalType": "uint256",
          "name": "price",
          "type": "uint256"
        }
      ],
      "name": "NFTBid",
      "type": "event"
    },
    {
      "anonymous": false,
      "inputs": [
        {
          "indexed": true,
          "internalType": "uint256",
          "name": "tokenId",
          "type": "uint256"
        },
        {
          "indexed": true,
          "internalType": "address",
          "name": "creator",
          "type": "address"
        }
      ],
      "name": "NFTCreated",
      "type": "event"
    },
    {
      "anonymous": false,
      "inputs": [
        {
          "indexed": true,
          "internalType": "uint256",
          "name": "tokenId",
          "type": "uint256"
        },
        {
          "indexed": false,
          "internalType": "uint256",
          "name": "price",
          "type": "uint256"
        }
      ],
      "name": "NFTListed",
      "type": "event"
    },
    {
      "anonymous": false,
      "inputs": [
        {
          "indexed": true,
          "internalType": "uint256",
          "name": "tokenId",
          "type": "uint256"
        },
        {
          "indexed": true,
          "internalType": "address",
          "name": "buyer",
          "type": "address"
        },
        {
          "indexed": false,
          "internalType": "uint256",
          "name": "price",
          "type": "uint256"
        }
      ],
      "name": "NFTSold",
      "type": "event"
    },
    {
      "anonymous": false,
      "inputs": [
        {
          "indexed": true,
          "internalType": "uint256",
          "name": "tokenId",
          "type": "uint256"
        }
      ],
      "name": "NFTUnlisted",
      "type": "event"
    },
    {
      "anonymous": false,
      "inputs": [
        {
          "indexed": true,
          "internalType": "address",
          "name": "previousOwner",
          "type": "address"
        },
        {
          "indexed": true,
          "internalType": "address",
          "name": "newOwner",
          "type": "address"
        }
      ],
      "name": "OwnershipTransferred",
      "type": "event"
    },
    {
      "anonymous": false,
      "inputs": [
        {
          "indexed": true,
          "internalType": "address",
          "name": "from",
          "type": "address"
        },
        {
          "indexed": true,
          "internalType": "address",
          "name": "to",
          "type": "address"
        },
        {
          "indexed": true,
          "internalType": "uint256",
          "name": "tokenId",
          "type": "uint256"
        }
      ],
      "name": "Transfer",
      "type": "event"
    },
    {
      "inputs": [
        {
          "internalType": "address",
          "name": "to",
          "type": "address"
        },
        {
          "internalType": "uint256",
          "name": "tokenId",
          "type": "uint256"
        }
      ],
      "name": "approve",
      "outputs": [],
      "stateMutability": "nonpayable",
      "type": "function"
    },
    {
      "inputs": [
        {
          "internalType": "address",
          "name": "owner",
          "type": "address"
        }
      ],
      "name": "balanceOf",
      "outputs": [
        {
          "internalType": "uint256",
          "name": "",
          "type": "uint256"
        }
      ],
      "stateMutability": "view",
      "type": "function"
    },
    {
      "inputs": [
        {
          "internalType": "uint256",
          "name": "tokenId",
          "type": "uint256"
        }
      ],
      "name": "getApproved",
      "outputs": [
        {
          "internalType": "address",
          "name": "",
          "type": "address"
        }
      ],
      "stateMutability": "view",
      "type": "function"
    },
    {
      "inputs": [
        {
          "internalType": "address",
          "name": "owner",
          "type": "address"
        },
        {
          "internalType": "address",
          "name": "operator",
          "type": "address"
        }
      ],
      "name": "isApprovedForAll",
      "outputs": [
        {
          "internalType": "bool",
          "name": "",
          "type": "bool"
        }
      ],
      "stateMutability": "view",
      "type": "function"
    },
    {
      "inputs": [],
      "name": "name",
      "outputs": [
        {
          "internalType": "string",
          "name": "",
          "type": "string"
        }
      ],
      "stateMutability": "view",
      "type": "function"
    },
    {
      "inputs": [],
      "name": "owner",
      "outputs": [
        {
          "internalType": "address",
          "name": "",
          "type": "address"
        }
      ],
      "stateMutability": "view",
      "type": "function"
    },
    {
      "inputs": [
        {
          "internalType": "uint256",
          "name": "tokenId",
          "type": "uint256"
        }
      ],
      "name": "ownerOf",
      "outputs": [
        {
          "internalType": "address",
          "name": "",
          "type": "address"
        }
      ],
      "stateMutability": "view",
      "type": "function"
    },
    {
      "inputs": [],
      "name": "renounceOwnership",
      "outputs": [],
      "stateMutability": "nonpayable",
      "type": "function"
    },
    {
      "inputs": [
        {
          "internalType": "address",
          "name": "from",
          "type": "address"
        },
        {
          "internalType": "address",
          "name": "to",
          "type": "address"
        },
        {
          "internalType": "uint256",
          "name": "tokenId",
          "type": "uint256"
        }
      ],
      "name": "safeTransferFrom",
      "outputs": [],
      "stateMutability": "nonpayable",
      "type": "function"
    },
    {
      "inputs": [
        {
          "internalType": "address",
          "name": "from",
          "type": "address"
        },
        {
          "internalType": "address",
          "name": "to",
          "type": "address"
        },
        {
          "internalType": "uint256",
          "name": "tokenId",
          "type": "uint256"
        },
        {
          "internalType": "bytes",
          "name": "data",
          "type": "bytes"
        }
      ],
      "name": "safeTransferFrom",
      "outputs": [],
      "stateMutability": "nonpayable",
      "type": "function"
    },
    {
      "inputs": [
        {
          "internalType": "address",
          "name": "operator",
          "type": "address"
        },
        {
          "internalType": "bool",
          "name": "approved",
          "type": "bool"
        }
      ],
      "name": "setApprovalForAll",
      "outputs": [],
      "stateMutability": "nonpayable",
      "type": "function"
    },
    {
      "inputs": [
        {
          "internalType": "bytes4",
          "name": "interfaceId",
          "type": "bytes4"
        }
      ],
      "name": "supportsInterface",
      "outputs": [
        {
          "internalType": "bool",
          "name": "",
          "type": "bool"
        }
      ],
      "stateMutability": "view",
      "type": "function"
    },
    {
      "inputs": [],
      "name": "symbol",
      "outputs": [
        {
          "internalType": "string",
          "name": "",
          "type": "string"
        }
      ],
      "stateMutability": "view",
      "type": "function"
    },
    {
      "inputs": [
        {
          "internalType": "uint256",
          "name": "tokenId",
          "type": "uint256"
        }
      ],
      "name": "tokenURI",
      "outputs": [
        {
          "internalType": "string",
          "name": "",
          "type": "string"
        }
      ],
      "stateMutability": "view",
      "type": "function"
    },
    {
      "inputs": [
        {
          "internalType": "address",
          "name": "from",
          "type": "address"
        },
        {
          "internalType": "address",
          "name": "to",
          "type": "address"
        },
        {
          "internalType": "uint256",
          "name": "tokenId",
          "type": "uint256"
        }
      ],
      "name": "transferFrom",
      "outputs": [],
      "stateMutability": "nonpayable",
      "type": "function"
    },
    {
      "inputs": [
        {
          "internalType": "address",
          "name": "newOwner",
          "type": "address"
        }
      ],
      "name": "transferOwnership",
      "outputs": [],
      "stateMutability": "nonpayable",
      "type": "function"
    },
    {
      "inputs": [
        {
          "internalType": "string",
          "name": "name",
          "type": "string"
        },
        {
          "internalType": "string",
          "name": "description",
          "type": "string"
        },
        {
          "internalType": "string",
          "name": "ipfsUri",
          "type": "string"
        },
        {
          "internalType": "uint256",
          "name": "price",
          "type": "uint256"
        },
        {
          "internalType": "bool",
          "name": "listed",
          "type": "bool"
        }
      ],
      "name": "createNFT",
      "outputs": [],
      "stateMutability": "nonpayable",
      "type": "function"
    },
    {
      "inputs": [
        {
          "internalType": "uint256",
          "name": "tokenId",
          "type": "uint256"
        }
      ],
      "name": "getNFTDetails",
      "outputs": [
        {
          "internalType": "string",
          "name": "name",
          "type": "string"
        },
        {
          "internalType": "string",
          "name": "description",
          "type": "string"
        },
        {
          "internalType": "uint256",
          "name": "price",
          "type": "uint256"
        },
        {
          "internalType": "bool",
          "name": "listed",
          "type": "bool"
        },
        {
          "internalType": "string",
          "name": "metadataURI",
          "type": "string"
        }
      ],
      "stateMutability": "view",
      "type": "function"
    },
    {
      "inputs": [
        {
          "internalType": "address",
          "name": "creator",
          "type": "address"
        }
      ],
      "name": "getAllCreatorNFTsDetails",
      "outputs": [
        {
          "components": [
            {
              "internalType": "uint256",
              "name": "tokenId",
              "type": "uint256"
            },
            {
              "internalType": "string",
              "name": "name",
              "type": "string"
            },
            {
              "internalType": "string",
              "name": "description",
              "type": "string"
            },
            {
              "internalType": "uint256",
              "name": "price",
              "type": "uint256"
            },
            {
              "internalType": "bool",
              "name": "listed",
              "type": "bool"
            },
            {
              "internalType": "string",
              "name": "metadataURI",
              "type": "string"
            }
          ],
          "internalType": "struct DigitalDelirium.NFT[]",
          "name": "",
          "type": "tuple[]"
        }
      ],
      "stateMutability": "view",
      "type": "function"
    },
    {
      "inputs": [
        {
          "internalType": "uint256",
          "name": "tokenId",
          "type": "uint256"
        },
        {
          "internalType": "uint256",
          "name": "price",
          "type": "uint256"
        }
      ],
      "name": "listNFT",
      "outputs": [],
      "stateMutability": "nonpayable",
      "type": "function"
    },
    {
      "inputs": [
        {
          "internalType": "uint256",
          "name": "tokenId",
          "type": "uint256"
        }
      ],
      "name": "unlistNFT",
      "outputs": [],
      "stateMutability": "nonpayable",
      "type": "function"
    },
    {
      "inputs": [
        {
          "internalType": "uint256",
          "name": "tokenId",
          "type": "uint256"
        }
      ],
      "name": "buyNFT",
      "outputs": [],
      "stateMutability": "payable",
      "type": "function"
    },
    {
      "inputs": [],
      "name": "totalSupply",
      "outputs": [
        {
          "internalType": "uint256",
          "name": "",
          "type": "uint256"
        }
      ],
      "stateMutability": "view",
      "type": "function"
    },
    {
      "inputs": [
        {
          "internalType": "uint256",
          "name": "tokenId",
          "type": "uint256"
        }
      ],
      "name": "exists",
      "outputs": [
        {
          "internalType": "bool",
          "name": "",
          "type": "bool"
        }
      ],
      "stateMutability": "view",
      "type": "function"
    },
    {
      "inputs": [],
      "name": "getAllNFTMetadata",
      "outputs": [
        {
          "components": [
            {
              "internalType": "uint256",
              "name": "tokenId",
              "type": "uint256"
            },
            {
              "internalType": "string",
              "name": "name",
              "type": "string"
            },
            {
              "internalType": "string",
              "name": "description",
              "type": "string"
            },
            {
              "internalType": "uint256",
              "name": "price",
              "type": "uint256"
            },
            {
              "internalType": "bool",
              "name": "listed",
              "type": "bool"
            },
            {
              "internalType": "string",
              "name": "metadataURI",
              "type": "string"
            }
          ],
          "internalType": "struct DigitalDelirium.NFT[]",
          "name": "",
          "type": "tuple[]"
        }
      ],
      "stateMutability": "view",
      "type": "function"
    },
    {
      "inputs": [],
      "name": "getNumberOfListedItems",
      "outputs": [
        {
          "internalType": "uint256",
          "name": "",
          "type": "uint256"
        }
      ],
      "stateMutability": "view",
      "type": "function"
    },
    {
      "inputs": [],
      "name": "getNumberOfItemsOwners",
      "outputs": [
        {
          "internalType": "uint256",
          "name": "",
          "type": "uint256"
        }
      ],
      "stateMutability": "view",
      "type": "function"
    }
  ],
  "bytecode": "0x60806040523480156200001157600080fd5b5060405162002dcb38038062002dcb8339810160408190526200003491620001dd565b604080518082018252601081526f4469676974616c2044656c697269756d60801b6020808301918252835180850190945260048452632222262960e11b908401528151919291620000889160009162000137565b5080516200009e90600190602084019062000137565b505050620000bb620000b5620000e160201b60201c565b620000e5565b600b80546001600160a01b0319166001600160a01b03929092169190911790556200024a565b3390565b600780546001600160a01b038381166001600160a01b0319831681179093556040519116919082907f8be0079c531659141344cd1fd0a4f28419497f9722a3daafe3b4186f6b6457e090600090a35050565b82805462000145906200020d565b90600052602060002090601f016020900481019282620001695760008555620001b4565b82601f106200018457805160ff1916838001178555620001b4565b82800160010185558215620001b4579182015b82811115620001b457825182559160200191906001019062000197565b50620001c2929150620001c6565b5090565b5b80821115620001c25760008155600101620001c7565b600060208284031215620001ef578081fd5b81516001600160a01b038116811462000206578182fd5b9392505050565b6002810460018216806200022257607f821691505b602082108114156200024457634e487b7160e01b600052602260045260246000fd5b50919050565b612b71806200025a6000396000f3fe60806040526004361061019c5760003560e01c8063715018a6116100ec578063961f09441161008a578063c87b56dd11610064578063c87b56dd14610498578063e985e9c5146104b8578063f2fde38b14610501578063ff8af9ee146105215761019c565b8063961f094414610438578063a22cb46514610458578063b88d4fde146104785761019c565b8063827f517f116100c6578063827f517f146103d05780638da5cb5b146103e557806394383f141461040357806395d89b41146104235761019c565b8063715018a61461035d57806372c6e1e81461037257806382260f351461039f5761019c565b806323b872dd1161015957806351ed82881161013357806351ed8288146102ea57806358b5bce9146102fd5780636352211e1461031d57806370a082311461033d5761019c565b806323b872dd1461028a57806342842e0e146102aa5780634f558e79146102ca5761019c565b806301ffc9a7146101a157806306fdde03146101d6578063081812fc146101f8578063095ea7b31461023057806318160ddd1461025257806320730feb14610275575b600080fd5b3480156101ad57600080fd5b506101c16101bc3660046126a3565b610536565b60405190151581526020015b60405180910390f35b3480156101e257600080fd5b506101eb610563565b6040516101cd919061290b565b34801561020457600080fd5b5061021861021336600461277a565b6105f5565b6040516001600160a01b0390911681526020016101cd565b34801561023c57600080fd5b5061025061024b36600461267a565b61061c565b005b34801561025e57600080fd5b50610267610737565b6040519081526020016101cd565b34801561028157600080fd5b50610267610747565b34801561029657600080fd5b506102506102a536600461259d565b6107a2565b3480156102b657600080fd5b506102506102c536600461259d565b6107d3565b3480156102d657600080fd5b506101c16102e536600461277a565b6107ee565b6102506102f836600461277a565b6107f9565b34801561030957600080fd5b506102506103183660046126db565b6109db565b34801561032957600080fd5b5061021861033836600461277a565b610b3c565b34801561034957600080fd5b50610267610358366004612551565b610b9c565b34801561036957600080fd5b50610250610c22565b34801561037e57600080fd5b5061039261038d366004612551565b610c36565b6040516101cd919061284b565b3480156103ab57600080fd5b506103bf6103ba36600461277a565b610ffc565b6040516101cd95949392919061291e565b3480156103dc57600080fd5b50610267611212565b3480156103f157600080fd5b506007546001600160a01b0316610218565b34801561040f57600080fd5b5061025061041e366004612792565b611297565b34801561042f57600080fd5b506101eb6113c6565b34801561044457600080fd5b5061025061045336600461277a565b6113d5565b34801561046457600080fd5b50610250610473366004612651565b6114ec565b34801561048457600080fd5b506102506104933660046125d8565b6114fb565b3480156104a457600080fd5b506101eb6104b336600461277a565b611533565b3480156104c457600080fd5b506101c16104d336600461256b565b6001600160a01b03918216600090815260056020908152604080832093909416825291909152205460ff1690565b34801561050d57600080fd5b5061025061051c366004612551565b611638565b34801561052d57600080fd5b506103926116b1565b60006001600160e01b03198216632483248360e11b148061055b575061055b82611965565b90505b919050565b60606000805461057290612aad565b80601f016020809104026020016040519081016040528092919081815260200182805461059e90612aad565b80156105eb5780601f106105c0576101008083540402835291602001916105eb565b820191906000526020600020905b8154815290600101906020018083116105ce57829003601f168201915b5050505050905090565b6000610600826119b5565b506000908152600460205260409020546001600160a01b031690565b600061062782610b3c565b9050806001600160a01b0316836001600160a01b0316141561069a5760405162461bcd60e51b815260206004820152602160248201527f4552433732313a20617070726f76616c20746f2063757272656e74206f776e656044820152603960f91b60648201526084015b60405180910390fd5b336001600160a01b03821614806106b657506106b681336104d3565b6107285760405162461bcd60e51b815260206004820152603d60248201527f4552433732313a20617070726f76652063616c6c6572206973206e6f7420746f60448201527f6b656e206f776e6572206f7220617070726f76656420666f7220616c6c0000006064820152608401610691565b6107328383611a05565b505050565b600061074260085490565b905090565b60008061075360085490565b90506000805b8281101561079b5760008181526009602052604090206004015460ff1615610789578161078581612ae8565b9250505b8061079381612ae8565b915050610759565b5091505090565b6107ac3382611a73565b6107c85760405162461bcd60e51b815260040161069190612971565b610732838383611af1565b610732838383604051806020016040528060008152506114fb565b600061055b82611c55565b61080281611c55565b61081e5760405162461bcd60e51b815260040161069190612a55565b6000818152600960205260409020600481015460ff1661087a5760405162461bcd60e51b81526020600482015260176024820152764e4654206e6f74206c697374656420666f722073616c6560481b6044820152606401610691565b80600301543410156108c55760405162461bcd60e51b8152602060048201526014602482015273125b9cdd59999a58da595b9d081c185e5b595b9d60621b6044820152606401610691565b60006108d083610b3c565b90506108dd813385611af1565b60048201805460ff1916905560038201546040516000916001600160a01b038416918381818185875af1925050503d8060008114610937576040519150601f19603f3d011682016040523d82523d6000602084013e61093c565b606091505b505090508061098d5760405162461bcd60e51b815260206004820152601760248201527f5061796d656e74207472616e73666572206661696c65640000000000000000006044820152606401610691565b336001600160a01b0316847f6329e40c0365262ebbff5ca819385c2b9713dcaa050ed07866d72c441395699a85600301546040516109cd91815260200190565b60405180910390a350505050565b60006109e660085490565b90506109f23382611c72565b60006109fc611c8c565b85604051602001610a0e9291906127df565b60408051601f1981840301815260c08301825284835260208381018b81528484018b905260608501899052871515608086015260a08501839052600087815260098352939093208451815592518051929550610a7392600185019291909101906123c4565b5060408201518051610a8f9160028401916020909101906123c4565b5060608201516003820155608082015160048201805460ff191691151591909117905560a08201518051610acd9160058401916020909101906123c4565b5050506000828152600a6020526040902080546001600160a01b03191633179055610afc600880546001019055565b604051339083907fbe4d5028ecb11dfb1cbc0c1dd7eed270db43c11a50da18fceb823c9af57a2a7890600090a3610b338286611cbb565b50505050505050565b6000818152600260205260408120546001600160a01b03168061055b5760405162461bcd60e51b8152602060048201526018602482015277115490cdcc8c4e881a5b9d985b1a59081d1bdad95b88125160421b6044820152606401610691565b60006001600160a01b038216610c065760405162461bcd60e51b815260206004820152602960248201527f4552433732313a2061646472657373207a65726f206973206e6f7420612076616044820152683634b21037bbb732b960b91b6064820152608401610691565b506001600160a01b031660009081526003602052604090205490565b610c2a611d7e565b610c346000611dd8565b565b60606000610c4360085490565b905060008167ffffffffffffffff811115610c6e57634e487b7160e01b600052604160045260246000fd5b604051908082528060200260200182016040528015610ca757816020015b610c94612448565b815260200190600190039081610c8c5790505b5090506000805b83811015610f1b576000818152600a60205260409020546001600160a01b0387811691161415610f0957600081815260096020908152604091829020825160c0810190935280548352600181018054919392830191610d0c90612aad565b80601f0160208091040260200160405190810160405280929190818152602001828054610d3890612aad565b8015610d855780601f10610d5a57610100808354040283529160200191610d85565b820191906000526020600020905b815481529060010190602001808311610d6857829003601f168201915b50505050508152602001826002018054610d9e90612aad565b80601f0160208091040260200160405190810160405280929190818152602001828054610dca90612aad565b8015610e175780601f10610dec57610100808354040283529160200191610e17565b820191906000526020600020905b815481529060010190602001808311610dfa57829003601f168201915b505050918352505060038301546020820152600483015460ff1615156040820152600583018054606090920191610e4d90612aad565b80601f0160208091040260200160405190810160405280929190818152602001828054610e7990612aad565b8015610ec65780601f10610e9b57610100808354040283529160200191610ec6565b820191906000526020600020905b815481529060010190602001808311610ea957829003601f168201915b5050505050815250848481518110610eee57634e487b7160e01b600052603260045260246000fd5b60200260200101819052508280610f0490612ae8565b935050505b80610f1381612ae8565b915050610cae565b5060008167ffffffffffffffff811115610f4557634e487b7160e01b600052604160045260246000fd5b604051908082528060200260200182016040528015610f7e57816020015b610f6b612448565b815260200190600190039081610f635790505b50905060005b82811015610ff257838181518110610fac57634e487b7160e01b600052603260045260246000fd5b6020026020010151828281518110610fd457634e487b7160e01b600052603260045260246000fd5b60200260200101819052508080610fea90612ae8565b915050610f84565b5095945050505050565b606080600080606061100d86611c55565b6110295760405162461bcd60e51b815260040161069190612a55565b60008681526009602052604090206003810154600482015460018301805490926002850192909160ff909116906005860190859061106690612aad565b80601f016020809104026020016040519081016040528092919081815260200182805461109290612aad565b80156110df5780601f106110b4576101008083540402835291602001916110df565b820191906000526020600020905b8154815290600101906020018083116110c257829003601f168201915b505050505094508380546110f290612aad565b80601f016020809104026020016040519081016040528092919081815260200182805461111e90612aad565b801561116b5780601f106111405761010080835404028352916020019161116b565b820191906000526020600020905b81548152906001019060200180831161114e57829003601f168201915b5050505050935080805461117e90612aad565b80601f01602080910402602001604051908101604052809291908181526020018280546111aa90612aad565b80156111f75780601f106111cc576101008083540402835291602001916111f7565b820191906000526020600020905b8154815290600101906020018083116111da57829003601f168201915b50505050509050955095509550955095505091939590929450565b60008061121e60085490565b905060008060005b8381101561128e57600061123982610b3c565b90506001600160a01b038116158015906112655750826001600160a01b0316816001600160a01b031614155b1561127b578361127481612ae8565b9450508092505b508061128681612ae8565b915050611226565b50909250505090565b6112a082611c55565b6112bc5760405162461bcd60e51b815260040161069190612a55565b336112c683610b3c565b6001600160a01b0316146113175760405162461bcd60e51b8152602060048201526018602482015277139bdd081d1a19481bdddb995c881bd9881d1a194813919560421b6044820152606401610691565b6000828152600960205260409020600481015460ff161561136f5760405162461bcd60e51b815260206004820152601260248201527113919508185b1c9958591e481b1a5cdd195960721b6044820152606401610691565b60048101805460ff191660011790556003810182905560405183907fa6cd73580a273eec6c1026108f6b63479fbaef5356dde4ff43e4b38dd187485f906113b99085815260200190565b60405180910390a2505050565b60606001805461057290612aad565b6113de81611c55565b6113fa5760405162461bcd60e51b815260040161069190612a55565b3361140482610b3c565b6001600160a01b0316146114555760405162461bcd60e51b8152602060048201526018602482015277139bdd081d1a19481bdddb995c881bd9881d1a194813919560421b6044820152606401610691565b6000818152600960205260409020600481015460ff166114b15760405162461bcd60e51b81526020600482015260176024820152764e4654206e6f74206c697374656420666f722073616c6560481b6044820152606401610691565b60048101805460ff1916905560405182907fcd14eb7ebf273ed59a9fd1cf8651f3f40d9a04355b3511376f0d17b37ba224ff90600090a25050565b6114f7338383611e2a565b5050565b6115053383611a73565b6115215760405162461bcd60e51b815260040161069190612971565b61152d84848484611ef9565b50505050565b606061153e826119b5565b6000828152600660205260408120805461155790612aad565b80601f016020809104026020016040519081016040528092919081815260200182805461158390612aad565b80156115d05780601f106115a5576101008083540402835291602001916115d0565b820191906000526020600020905b8154815290600101906020018083116115b357829003601f168201915b5050505050905060006115e1611c8c565b90508051600014156115f55750905061055e565b81511561162757808260405160200161160f9291906127df565b6040516020818303038152906040529250505061055e565b61163084611f2c565b949350505050565b611640611d7e565b6001600160a01b0381166116a55760405162461bcd60e51b815260206004820152602660248201527f4f776e61626c653a206e6577206f776e657220697320746865207a65726f206160448201526564647265737360d01b6064820152608401610691565b6116ae81611dd8565b50565b606060006116be60085490565b905060008167ffffffffffffffff8111156116e957634e487b7160e01b600052604160045260246000fd5b60405190808252806020026020018201604052801561172257816020015b61170f612448565b8152602001906001900390816117075790505b50905060005b8281101561079b57600081815260096020908152604091829020825160c081019093528054835260018101805491939283019161176490612aad565b80601f016020809104026020016040519081016040528092919081815260200182805461179090612aad565b80156117dd5780601f106117b2576101008083540402835291602001916117dd565b820191906000526020600020905b8154815290600101906020018083116117c057829003601f168201915b505050505081526020018260020180546117f690612aad565b80601f016020809104026020016040519081016040528092919081815260200182805461182290612aad565b801561186f5780601f106118445761010080835404028352916020019161186f565b820191906000526020600020905b81548152906001019060200180831161185257829003601f168201915b505050918352505060038301546020820152600483015460ff16151560408201526005830180546060909201916118a590612aad565b80601f01602080910402602001604051908101604052809291908181526020018280546118d190612aad565b801561191e5780601f106118f35761010080835404028352916020019161191e565b820191906000526020600020905b81548152906001019060200180831161190157829003601f168201915b505050505081525083838151811061194657634e487b7160e01b600052603260045260246000fd5b602002602001018190525050808061195d90612ae8565b915050611728565b60006001600160e01b031982166380ac58cd60e01b148061199657506001600160e01b03198216635b5e139f60e01b145b8061055b57506301ffc9a760e01b6001600160e01b031983161461055b565b6119be81611c55565b6116ae5760405162461bcd60e51b8152602060048201526018602482015277115490cdcc8c4e881a5b9d985b1a59081d1bdad95b88125160421b6044820152606401610691565b600081815260046020526040902080546001600160a01b0319166001600160a01b0384169081179091558190611a3a82610b3c565b6001600160a01b03167f8c5be1e5ebec7d5bd14f71427d1e84f3dd0314c0f7b2291e5b200ac8c7c3b92560405160405180910390a45050565b600080611a7f83610b3c565b9050806001600160a01b0316846001600160a01b03161480611ac657506001600160a01b0380821660009081526005602090815260408083209388168352929052205460ff165b806116305750836001600160a01b0316611adf846105f5565b6001600160a01b031614949350505050565b826001600160a01b0316611b0482610b3c565b6001600160a01b031614611b2a5760405162461bcd60e51b815260040161069190612a10565b6001600160a01b038216611b8c5760405162461bcd60e51b8152602060048201526024808201527f4552433732313a207472616e7366657220746f20746865207a65726f206164646044820152637265737360e01b6064820152608401610691565b826001600160a01b0316611b9f82610b3c565b6001600160a01b031614611bc55760405162461bcd60e51b815260040161069190612a10565b600081815260046020908152604080832080546001600160a01b03199081169091556001600160a01b0387811680865260038552838620805460001901905590871680865283862080546001019055868652600290945282852080549092168417909155905184937fddf252ad1be2c89b69c2b068fc378daa952ba7f163c4a11628f55a4df523b3ef91a4610732565b6000908152600260205260409020546001600160a01b0316151590565b6114f7828260405180602001604052806000815250611f93565b60408051808201909152601581527468747470733a2f2f697066732e696f2f697066732f60581b602082015290565b611cc482611c55565b611d275760405162461bcd60e51b815260206004820152602e60248201527f45524337323155524953746f726167653a2055524920736574206f66206e6f6e60448201526d32bc34b9ba32b73a103a37b5b2b760911b6064820152608401610691565b60008281526006602090815260409091208251611d46928401906123c4565b506040518281527ff8e1a15aba9398e019f0b49df1a4fde98ee17ae345cb5f6b5e2c27f5033e8ce79060200160405180910390a15050565b6007546001600160a01b03163314610c345760405162461bcd60e51b815260206004820181905260248201527f4f776e61626c653a2063616c6c6572206973206e6f7420746865206f776e65726044820152606401610691565b600780546001600160a01b038381166001600160a01b0319831681179093556040519116919082907f8be0079c531659141344cd1fd0a4f28419497f9722a3daafe3b4186f6b6457e090600090a35050565b816001600160a01b0316836001600160a01b03161415611e8c5760405162461bcd60e51b815260206004820152601960248201527f4552433732313a20617070726f766520746f2063616c6c6572000000000000006044820152606401610691565b6001600160a01b03838116600081815260056020908152604080832094871680845294825291829020805460ff191686151590811790915591519182527f17307eab39ab6107e8899845ad3d59bd9653f200f220920489ca2b5937696c31910160405180910390a3505050565b611f04848484611af1565b611f1084848484611fc6565b61152d5760405162461bcd60e51b8152600401610691906129be565b6060611f37826119b5565b6000611f41611c8c565b90506000815111611f615760405180602001604052806000815250611f8c565b80611f6b846120d3565b604051602001611f7c9291906127df565b6040516020818303038152906040525b9392505050565b611f9d838361217e565b611faa6000848484611fc6565b6107325760405162461bcd60e51b8152600401610691906129be565b60006001600160a01b0384163b156120c857604051630a85bd0160e11b81526001600160a01b0385169063150b7a029061200a90339089908890889060040161280e565b602060405180830381600087803b15801561202457600080fd5b505af1925050508015612054575060408051601f3d908101601f19168201909252612051918101906126bf565b60015b6120ae573d808015612082576040519150601f19603f3d011682016040523d82523d6000602084013e612087565b606091505b5080516120a65760405162461bcd60e51b8152600401610691906129be565b805181602001fd5b6001600160e01b031916630a85bd0160e11b149050611630565b506001949350505050565b606060006120e0836122ec565b600101905060008167ffffffffffffffff81111561210e57634e487b7160e01b600052604160045260246000fd5b6040519080825280601f01601f191660200182016040528015612138576020820181803683370190505b5090508181016020015b600019016f181899199a1a9b1b9c1cb0b131b232b360811b600a86061a8153600a850494508461217157612176565b612142565b509392505050565b6001600160a01b0382166121d45760405162461bcd60e51b815260206004820181905260248201527f4552433732313a206d696e7420746f20746865207a65726f20616464726573736044820152606401610691565b6121dd81611c55565b1561222a5760405162461bcd60e51b815260206004820152601c60248201527f4552433732313a20746f6b656e20616c7265616479206d696e746564000000006044820152606401610691565b61223381611c55565b156122805760405162461bcd60e51b815260206004820152601c60248201527f4552433732313a20746f6b656e20616c7265616479206d696e746564000000006044820152606401610691565b6001600160a01b038216600081815260036020908152604080832080546001019055848352600290915280822080546001600160a01b0319168417905551839291907fddf252ad1be2c89b69c2b068fc378daa952ba7f163c4a11628f55a4df523b3ef908290a46114f7565b60008072184f03e93ff9f4daa797ed6e38ed64bf6a1f0160401b831061232b5772184f03e93ff9f4daa797ed6e38ed64bf6a1f0160401b830492506040015b6d04ee2d6d415b85acef81000000008310612357576d04ee2d6d415b85acef8100000000830492506020015b662386f26fc10000831061237557662386f26fc10000830492506010015b6305f5e100831061238d576305f5e100830492506008015b61271083106123a157612710830492506004015b606483106123b3576064830492506002015b600a831061055b5760010192915050565b8280546123d090612aad565b90600052602060002090601f0160209004810192826123f25760008555612438565b82601f1061240b57805160ff1916838001178555612438565b82800160010185558215612438579182015b8281111561243857825182559160200191906001019061241d565b50612444929150612480565b5090565b6040518060c0016040528060008152602001606081526020016060815260200160008152602001600015158152602001606081525090565b5b808211156124445760008155600101612481565b600067ffffffffffffffff808411156124b0576124b0612b0f565b604051601f8501601f19908116603f011681019082821181831017156124d8576124d8612b0f565b816040528093508581528686860111156124f157600080fd5b858560208301376000602087830101525050509392505050565b80356001600160a01b038116811461055e57600080fd5b8035801515811461055e57600080fd5b600082601f830112612542578081fd5b611f8c83833560208501612495565b600060208284031215612562578081fd5b611f8c8261250b565b6000806040838503121561257d578081fd5b6125868361250b565b91506125946020840161250b565b90509250929050565b6000806000606084860312156125b1578081fd5b6125ba8461250b565b92506125c86020850161250b565b9150604084013590509250925092565b600080600080608085870312156125ed578081fd5b6125f68561250b565b93506126046020860161250b565b925060408501359150606085013567ffffffffffffffff811115612626578182fd5b8501601f81018713612636578182fd5b61264587823560208401612495565b91505092959194509250565b60008060408385031215612663578182fd5b61266c8361250b565b915061259460208401612522565b6000806040838503121561268c578182fd5b6126958361250b565b946020939093013593505050565b6000602082840312156126b4578081fd5b8135611f8c81612b25565b6000602082840312156126d0578081fd5b8151611f8c81612b25565b600080600080600060a086880312156126f2578081fd5b853567ffffffffffffffff80821115612709578283fd5b61271589838a01612532565b9650602088013591508082111561272a578283fd5b61273689838a01612532565b9550604088013591508082111561274b578283fd5b5061275888828901612532565b9350506060860135915061276e60808701612522565b90509295509295909350565b60006020828403121561278b578081fd5b5035919050565b600080604083850312156127a4578182fd5b50508035926020909101359150565b600081518084526127cb816020860160208601612a81565b601f01601f19169290920160200192915050565b600083516127f1818460208801612a81565b835190830190612805818360208801612a81565b01949350505050565b6001600160a01b0385811682528416602082015260408101839052608060608201819052600090612841908301846127b3565b9695505050505050565b60208082528251828201819052600091906040908185019080840286018301878501865b838110156128fd57603f19898403018552815160c08151855288820151818a87015261289d828701826127b3565b91505087820151858203898701526128b582826127b3565b6060848101519088015260808085015115159088015260a0938401518782039488019490945291506128e9905081836127b3565b96890196945050509086019060010161286f565b509098975050505050505050565b600060208252611f8c60208301846127b3565b600060a0825261293160a08301886127b3565b828103602084015261294381886127b3565b90508560408401528415156060840152828103608084015261296581856127b3565b98975050505050505050565b6020808252602d908201527f4552433732313a2063616c6c6572206973206e6f7420746f6b656e206f776e6560408201526c1c881bdc88185c1c1c9bdd9959609a1b606082015260800190565b60208082526032908201527f4552433732313a207472616e7366657220746f206e6f6e20455243373231526560408201527131b2b4bb32b91034b6b83632b6b2b73a32b960711b606082015260800190565b60208082526025908201527f4552433732313a207472616e736665722066726f6d20696e636f72726563742060408201526437bbb732b960d91b606082015260800190565b60208082526012908201527113919508191bd95cc81b9bdd08195e1a5cdd60721b604082015260600190565b60005b83811015612a9c578181015183820152602001612a84565b8381111561152d5750506000910152565b600281046001821680612ac157607f821691505b60208210811415612ae257634e487b7160e01b600052602260045260246000fd5b50919050565b6000600019821415612b0857634e487b7160e01b81526011600452602481fd5b5060010190565b634e487b7160e01b600052604160045260246000fd5b6001600160e01b0319811681146116ae57600080fdfea2646970667358221220f072d207bd68fb6e787877bdcb17f1d53473cca30bd3573d50075a63d66b2eff64736f6c63430008020033",
  "immutableReferences": {},
  "source": "// SPDX-License-Identifier: MIT\r\npragma solidity ^0.8.0;\r\n\r\nimport \"@openzeppelin/contracts/token/ERC721/extensions/ERC721URIStorage.sol\";\r\nimport \"@openzeppelin/contracts/access/Ownable.sol\";\r\nimport \"@openzeppelin/contracts/utils/Counters.sol\";\r\n\r\ncontract DigitalDelirium is ERC721URIStorage, Ownable {\r\n    using Counters for Counters.Counter;\r\n\r\n    Counters.Counter private _tokenIdCounter;\r\n\r\n    struct NFT {\r\n        uint256 tokenId;\r\n        string name;\r\n        string description;\r\n        uint256 price;\r\n        bool listed;\r\n        string metadataURI;\r\n    }\r\n\r\n    mapping(uint256 => NFT) private _nfts;\r\n    mapping(uint256 => address) private _nftCreators;\r\n\r\n    address private _erc20TokenAddress;\r\n\r\n    event NFTCreated(uint256 indexed tokenId, address indexed creator);\r\n    event NFTListed(uint256 indexed tokenId, uint256 price);\r\n    event NFTUnlisted(uint256 indexed tokenId);\r\n    event NFTSold(uint256 indexed tokenId, address indexed buyer, uint256 price);\r\n    event NFTBid(uint indexed tokenId, address indexed bidder, uint256 price);\r\n\r\n    constructor(address erc20TokenAddress) ERC721(\"Digital Delirium\", \"DDLR\") {\r\n        _erc20TokenAddress = erc20TokenAddress;\r\n    }\r\n\r\n    function createNFT(\r\n        string memory name,\r\n        string memory description,\r\n        string memory ipfsUri,\r\n        uint256 price,\r\n        bool listed\r\n    ) external {\r\n        uint256 newTokenId = _tokenIdCounter.current();\r\n\r\n        _safeMint(msg.sender, newTokenId);\r\n\r\n        string memory metadataURI = string(abi.encodePacked(_baseURI(), ipfsUri));\r\n        _nfts[newTokenId] = NFT(newTokenId, name, description, price, listed, metadataURI);\r\n        _nftCreators[newTokenId] = msg.sender;\r\n\r\n        _tokenIdCounter.increment();\r\n\r\n        emit NFTCreated(newTokenId, msg.sender);\r\n\r\n        _setTokenURI(newTokenId, ipfsUri);\r\n    }\r\n\r\n    function getNFTDetails(uint256 tokenId)\r\n        external\r\n        view\r\n        returns (\r\n            string memory name,\r\n            string memory description,\r\n            uint256 price,\r\n            bool listed,\r\n            string memory metadataURI\r\n        )\r\n    {\r\n        require(_exists(tokenId), \"NFT does not exist\");\r\n        NFT storage nft = _nfts[tokenId];\r\n        return (nft.name, nft.description, nft.price, nft.listed, nft.metadataURI);\r\n    }\r\n\r\n    function getAllCreatorNFTsDetails(address creator) external view returns (NFT[] memory) {\r\n        uint256 totalNFTs = _tokenIdCounter.current();\r\n        NFT[] memory creatorNFTs = new NFT[](totalNFTs);\r\n        uint256 count = 0;\r\n\r\n        for (uint256 i = 0; i < totalNFTs; i++) {\r\n            if (_nftCreators[i] == creator) {\r\n                NFT storage nft = _nfts[i];\r\n                creatorNFTs[count] = NFT(\r\n                    nft.tokenId,\r\n                    nft.name,\r\n                    nft.description,\r\n                    nft.price,\r\n                    nft.listed,\r\n                    nft.metadataURI\r\n                );\r\n                count++;\r\n            }\r\n        }\r\n\r\n        NFT[] memory result = new NFT[](count);\r\n        for (uint256 i = 0; i < count; i++) {\r\n            result[i] = creatorNFTs[i];\r\n        }\r\n\r\n        return result;\r\n    }\r\n\r\n\r\n    function listNFT(uint256 tokenId, uint256 price) external {\r\n        require(_exists(tokenId), \"NFT does not exist\");\r\n        require(ownerOf(tokenId) == msg.sender, \"Not the owner of the NFT\");\r\n\r\n        NFT storage nft = _nfts[tokenId];\r\n        require(!nft.listed, \"NFT already listed\");\r\n\r\n        nft.listed = true;\r\n        nft.price = price;\r\n\r\n        emit NFTListed(tokenId, price);\r\n    }\r\n\r\n    function unlistNFT(uint256 tokenId) external {\r\n        require(_exists(tokenId), \"NFT does not exist\");\r\n        require(ownerOf(tokenId) == msg.sender, \"Not the owner of the NFT\");\r\n\r\n        NFT storage nft = _nfts[tokenId];\r\n        require(nft.listed, \"NFT not listed for sale\");\r\n\r\n        nft.listed = false;\r\n\r\n        emit NFTUnlisted(tokenId);\r\n    }\r\n\r\n    function buyNFT(uint256 tokenId) external payable {\r\n        require(_exists(tokenId), \"NFT does not exist\");\r\n        NFT storage nft = _nfts[tokenId];\r\n        require(nft.listed, \"NFT not listed for sale\");\r\n        require(msg.value >= nft.price, \"Insufficient payment\");\r\n\r\n        address seller = ownerOf(tokenId);\r\n        _transfer(seller, msg.sender, tokenId);\r\n        nft.listed = false;\r\n\r\n        (bool success, ) = seller.call{value: nft.price}(\"\");\r\n        require(success, \"Payment transfer failed\");\r\n\r\n        emit NFTSold(tokenId, msg.sender, nft.price);\r\n    }\r\n\r\n    // TODO: Implement the Bid.\r\n    // function bidNFT(uint256 tokenId, uint256 bidAmount) external {\r\n    //     require(_exists(tokenId), \"NFT does not exist\");\r\n    //     NFT storage nft = _nfts[tokenId];\r\n    //     require(nft.listed, \"NFT not listed for sale\");\r\n\r\n    //     // Perform bidding actions\r\n\r\n    //     // Emit event or perform other actions as required\r\n    // }\r\n\r\n    function totalSupply() public view returns (uint256) {\r\n        return _tokenIdCounter.current();\r\n    }\r\n\r\n    function exists(uint256 tokenId) external view returns (bool) {\r\n        return _exists(tokenId);\r\n    }\r\n\r\n    function getAllNFTMetadata() external view returns (NFT[] memory) {\r\n        uint256 totalNFTs = _tokenIdCounter.current();\r\n        NFT[] memory allMetadata = new NFT[](totalNFTs);\r\n\r\n        for (uint256 i = 0; i < totalNFTs; i++) {\r\n            NFT storage nft = _nfts[i];\r\n            allMetadata[i] = NFT(nft.tokenId, nft.name, nft.description, nft.price, nft.listed, nft.metadataURI);\r\n        }\r\n\r\n        return allMetadata;\r\n    }\r\n\r\n    function getNumberOfListedItems() external view returns (uint256) {\r\n        uint256 totalNFTs = _tokenIdCounter.current();\r\n        uint256 count = 0;\r\n\r\n        for (uint256 i = 0; i < totalNFTs; i++) {\r\n            if (_nfts[i].listed) {\r\n                count++;\r\n            }\r\n        }\r\n\r\n        return count;\r\n    }\r\n\r\n    function getNumberOfItemsOwners() external view returns (uint256) {\r\n        uint256 totalNFTs = _tokenIdCounter.current();\r\n        uint256 count = 0;\r\n        address lastOwner = address(0);\r\n\r\n        for (uint256 i = 0; i < totalNFTs; i++) {\r\n            address currentOwner = ownerOf(i);\r\n            if (currentOwner != address(0) && currentOwner != lastOwner) {\r\n                count++;\r\n                lastOwner = currentOwner;\r\n            }\r\n        }\r\n\r\n        return count;\r\n    }\r\n\r\n\r\n    function _baseURI() internal view virtual override returns (string memory) {\r\n        return \"https://ipfs.io/ipfs/\";\r\n    }\r\n}",
  "sourcePath": "C:\\Users\\Djason Gadiou\\Documents\\GitHub\\projet_marketplace_nft\\app\\contracts\\DigitalDelirium.sol",
  "compiler": {
    "name": "solc",
    "version": "0.8.2+commit.661d1103.Emscripten.clang"
  },
  "schemaVersion": "3.4.13",
  "updatedAt": "2023-07-12T00:31:09.655Z",
  "devdoc": {
    "kind": "dev",
    "methods": {
      "approve(address,uint256)": {
        "details": "See {IERC721-approve}."
      },
      "balanceOf(address)": {
        "details": "See {IERC721-balanceOf}."
      },
      "getApproved(uint256)": {
        "details": "See {IERC721-getApproved}."
      },
      "isApprovedForAll(address,address)": {
        "details": "See {IERC721-isApprovedForAll}."
      },
      "name()": {
        "details": "See {IERC721Metadata-name}."
      },
      "owner()": {
        "details": "Returns the address of the current owner."
      },
      "ownerOf(uint256)": {
        "details": "See {IERC721-ownerOf}."
      },
      "renounceOwnership()": {
        "details": "Leaves the contract without owner. It will not be possible to call `onlyOwner` functions. Can only be called by the current owner. NOTE: Renouncing ownership will leave the contract without an owner, thereby disabling any functionality that is only available to the owner."
      },
      "safeTransferFrom(address,address,uint256)": {
        "details": "See {IERC721-safeTransferFrom}."
      },
      "safeTransferFrom(address,address,uint256,bytes)": {
        "details": "See {IERC721-safeTransferFrom}."
      },
      "setApprovalForAll(address,bool)": {
        "details": "See {IERC721-setApprovalForAll}."
      },
      "supportsInterface(bytes4)": {
        "details": "See {IERC165-supportsInterface}"
      },
      "symbol()": {
        "details": "See {IERC721Metadata-symbol}."
      },
      "tokenURI(uint256)": {
        "details": "See {IERC721Metadata-tokenURI}."
      },
      "transferFrom(address,address,uint256)": {
        "details": "See {IERC721-transferFrom}."
      },
      "transferOwnership(address)": {
        "details": "Transfers ownership of the contract to a new account (`newOwner`). Can only be called by the current owner."
      }
    },
    "version": 1
  },
  "userdoc": {
    "kind": "user",
    "methods": {},
    "version": 1
  }
}